:100000000128C501C601C701830106285B208C1C9D
:1000100007288C100230450203181E2802304602C1
:1000200003181E287B20003A03191E281A304702A5
:1000300003181E28A920003A03191F28CE20BB2030
:10004000003A031D2A2819304702031849280130B5
:10005000C70749284708031949280130C70249281A
:1000600008304702031C59281930C7000130C50069
:100070004608031D3F280130C600C5205928C60187
:10008000C12059284708031D5928C5015928CE20E9
:1000900059284508C300C4014408003A03195128EF
:1000A00047284308003A03193028013A0319422827
:1000B0004728640007286400F83087050830860068
:1000C00070309004880189158E133008C1391038BA
:1000D000B000C120C501C601C701BB20003A031D05
:1000E00075280130C5001930C700F930920007307B
:1000F00093008C1008000908C1000830C1050E0DDE
:100100000E0D0139C000C201410803198C284008B6
:10011000031D8C280130C20042080800C1000130D4
:10012000C000410A95280310C00DFF3E031D93280F
:100130004008FF3A87050800C1000130C000410AAD
:10014000A3280310C00DFF3E031DA128400887040B
:1001500008000330B220003A031DB0280130080027
:1001600000300800C00006084005031DB928013012
:10017000080000300800851DBF280130080000304D
:100180000800C92001309C200800CC2001308E20BE
:100190000800FE3087050800071408008B13CF28DD
:02400E009E38DA
:00000001FF
