:100000000128C601C701C801830106285B208C1C9A
:1000100007288C100230460203181E2802304702BF
:1000200003181E28A120003A03191E281A3048027E
:1000300003181E28CF20003A03191F28EC20E120C6
:10004000003A031D2A2819304802031849280130B4
:10005000C80749284808031949280130C802492817
:1000600008304802031C59281930C8000130C60066
:100070004708031D3F280130C7008E205928C701BB
:100080007B2059284808031D5928C6015928EC200F
:1000900059284608C400C5014508003A03195128EB
:1000A00047284408003A03193028013A0319422826
:1000B0004728640007286400F83087050830860068
:1000C00070309004880189158E133008C1391038BA
:1000D000B0007B20C601C701C801E120003A031D22
:1000E00075280130C6001930C800F9309200073079
:1000F00093008C1008000130B4200230B420E720B7
:100100000130C2201A30C300F830C200C20B86286A
:10011000C30B862800000230C22008000130C22034
:100120000230C220EA200230B4201A30C300F83076
:10013000C200C20B9928C30B992800000130B420DB
:1001400008000908C1000830C1050E0D0E0D013967
:10015000C000C20141080319B2284008031DB2289B
:100160000130C20042080800C1000130C000410A4D
:10017000BB280310C00DFF3E031DB9284008FF3AFD
:1001800087050800C1000130C000410AC9280310DA
:10019000C00DFF3E031DC728400887040800073034
:1001A000D820003A031DD62801300800003008008E
:1001B000C00006084005031DDF280130080000309C
:1001C0000800851DE5280130080000300800FE30D9
:0C01D00087050800071408008B13ED28B9
:02400E009E38DA
:00000001FF
