:100000000128C501C601C701830106285F208C1C99
:1000100007288C10023045020318222802304602BD
:10002000031822281A304702031822289C20003A7D
:10003000031922288120003A03192228B920003A06
:1000400003192328EE20D920003A031D2E28193049
:10005000470203184D280130C7074D2847080319E8
:100060004D280130C7024D2808304702031C5D2887
:100070001930C7000130C5004608031D4328013070
:10008000C600D2205D28C601CB205D284708031D8D
:100090005D28C5015D28EE205D284508C300C40128
:1000A0004408003A031955284B284308003A03191D
:1000B0003428013A031946284B28640007286400B5
:1000C000F83087050830860010088F3940389000D6
:1000D000880189158E133008C1391038B000CB2043
:1000E000C501C601C701D920003A031D7B28013094
:1000F000C5001930C7007C309200053093008C1089
:100100000800C001100E0739043A031D9A28300C6C
:100110001F39083A031D9A287C301206031D9A28BD
:1001200005301306031D9A2808080739031D9A286D
:100130000130C000400808000908C1000830C105AE
:100140000E0D0E0D0139C000C20141080319AD2882
:100150004008031DAD280130C200420808000430E9
:10016000C1003D30C000C00BB328C10BB328B82874
:1001700008000730C220003A031DC02801300800E3
:1001800000300800C00006084005031DC9280130E2
:10019000080000300800E520E220DF20EA20AF2040
:1001A000E8200800EA20E820EC20E220AF20E5204B
:1001B0000800851DDD280130080000300800FE30F1
:1001C00087050800FB3087050800FD30870508001B
:1001D0000715080087140800071408008B13EF2880
:02400E009E38DA
:00000001FF
