:100000000128C501C601C701830106285F208C1C99
:1000100007288C10023045020318222802304602BD
:10002000031822281A304702031822289D20003A7C
:10003000031922288220003A03192228BB20003A03
:1000400003192328F120D320003A031D2E2819304C
:10005000470203184D280130C7074D2847080319E8
:100060004D280130C7024D2808304702031C5D2887
:100070001930C7000130C5004608031D4328013070
:10008000C600D9205D28C601CD205D284708031D84
:100090005D28C5015D28F1205D284508C300C40125
:1000A0004408003A031955284B284308003A03191D
:1000B0003428013A031946284B28640007286400B5
:1000C000F83087050830860010088F3940389000D6
:1000D0008801083089008E133008C1391038B0000B
:1000E000CD20C501C601C701D320003A031D7C28DD
:1000F0000130C5001930C7007C30920005309300F4
:100100008C100800C001100E0739043A031D9B280B
:10011000300C1F39083A031D9B287C301206031D42
:100120009B2805301306031D9B2808080739031D6B
:100130009B280130C000400808000908C1000F30AA
:10014000C1050E0D0E0D0139C000C2010830410677
:10015000031DAF284008031DAF280130C20042082C
:1001600008000830C100C930C000C00BB528C10B61
:10017000B528BA2808000730C420003A031DC22859
:100180000130080000300800C00006084005031DCB
:10019000CB280130080000300800E220DF20EB20EF
:1001A000B120E2200800851DD7280130080000306A
:1001B0000800E220EF20ED20B120E2200800FE3010
:1001C00087050800E820E5200800FB3087050800C7
:1001D000FD3087050800871408000715080007147C
:0601E00008008B13F22859
:02400E009E38DA
:00000001FF
