:100000000128C501C601C701830106286D208C1C8B
:1000100007288C10023045020318302802304602AF
:10002000031830288D20003A03193028100E0739A4
:10003000073A031D3028300C1F39083A031D3028B9
:100040001A30470203183028F9301206031D3028F1
:1000500007301306031D3028A920003A0319312860
:10006000DF20C120003A031D3C2819304702031845
:100070005B280130C7075B28470803195B2801305C
:10008000C7025B2808304702031C6B281930C700E1
:100090000130C5004608031D51280130C600C720A5
:1000A0006B28C601BB206B284708031D6B28C501C0
:1000B0006B28DF206B284508C300C4014408003AC0
:1000C0000319632859284308003A03194228013AC2
:1000D000031954285928640007286400F83087055C
:1000E0000830860070309004880189158E1330081E
:1000F000C1391038B000BB20C501C601C701C120FD
:10010000003A031D87280130C5001930C700F930B7
:100110009200073093008C1008000908C1000830D5
:10012000C1050E0D0E0D0139C000C20141080319B1
:100130009E284008031D9E280130C2004208080086
:100140003F30C1005530C000C00BA428C10BA4280B
:1001500008000730B220003A031DB0280130080023
:1001600000300800C00006084005031DB928013012
:10017000080000300800D020CD20D920A020D020B9
:100180000800851DC5280130080000300800D02077
:10019000DD20DB20A020D0200800FE3087050800ED
:1001A000D620D3200800FB3087050800FD308705E6
:1001B00008008714080007150800071408008B13AF
:0201C000E02835
:02400E009E38DA
:00000001FF
