:100000000128C501C601C701830106286D208C1C8B
:1000100007288C10023045020318302802304602AF
:10002000031830288D20003A03193028100E0739A4
:10003000073A031D3028300C1F39083A031D3028B9
:100040001A30470203183028F9301206031D3028F1
:1000500007301306031D3028AA20003A031931285F
:10006000DF20CA20003A031D3C281930470203183C
:100070005B280130C7075B28470803195B2801305C
:10008000C7025B2808304702031C6B281930C700E1
:100090000130C5004608031D51280130C600C320A9
:1000A0006B28C601BC206B284708031D6B28C501BF
:1000B0006B28DF206B284508C300C4014408003AC0
:1000C0000319632859284308003A03194228013AC2
:1000D000031954285928640007286400F83087055C
:1000E0000830860070309004880189158E1330081E
:1000F000C1391038B000BC20C501C601C701CA20F3
:10010000003A031D87280130C5001930C700F930B7
:100110009200073093008C1008000908C1000830D5
:10012000C1050E0D0E0D0139C000C20141080319B1
:100130009E284008031D9E280130C2004208080086
:100140001A30C100F830C000C00BA428C10BA4288D
:10015000000008000730B320003A031DB128013029
:10016000080000300800C00006084005031DBA283A
:100170000130080000300800DB20D920D020D62034
:10018000A020D3200800D620D320DD20D920A02015
:10019000DB200800851DCE28013008000030080053
:1001A000FE3087050800FB3087050800FD30870515
:1001B00008000715080087140800071408008B13AF
:0201C000E02835
:02400E009E38DA
:00000001FF
