:100000000128C501C601C701830106286D208C1C8B
:1000100007288C10023045020318302802304602AF
:10002000031830288D20003A03193028100E0739A4
:10003000073A031D3028300C1F39083A031D3028B9
:100040001A30470203183028F9301206031D3028F1
:1000500007301306031D3028A020003A0319312869
:10006000C820B220003A031D3C281930470203186B
:100070005B280130C7075B28470803195B2801305C
:10008000C7025B2808304702031C6B281930C700E1
:100090000130C5004608031D51280130C600C120AB
:1000A0006B28C601B8206B284708031D6B28C501C3
:1000B0006B28C8206B284508C300C4014408003AD7
:1000C0000319632859284308003A03194228013AC2
:1000D000031954285928640007286400F83087055C
:1000E0000830860070309004880189158E1330081E
:1000F000C1391038B000B820C501C601C701B2200F
:10010000003A031D87280130C5001930C700F930B7
:100110009200073093008C1008000908C1000830D5
:10012000C1050E0D0E0D0139C000C20141080319B1
:100130009E284008031D9E280130C2004208080086
:100140000330A920003A031DA72801300800003021
:100150000800C00006084005031DB0280130080053
:1001600000300800851DB628013008000030080066
:10017000BE20BB200800FD3087050800FE30870543
:100180000800C620C42008008714080007140800CF
:040190008B13C928DC
:02400E009E38DA
:00000001FF
