:100000000128C601C701C801830106285B208C1C9A
:1000100007288C100230460203181E2802304702BF
:1000200003181E287B20003A03191E281A304802A4
:1000300003181E28C520003A03191F28E720D720DF
:10004000003A031D2A2819304802031849280130B4
:10005000C80749284808031949280130C802492817
:1000600008304802031C59281930C8000130C60066
:100070004708031D3F280130C7009C205928C701AD
:100080008E2059284808031D5928C6015928E72001
:1000900059284608C400C5014508003A03195128EB
:1000A00047284408003A03193028013A0319422826
:1000B0004728640007286400F83087050830860068
:1000C00070309004880189158E133008C1391038BA
:1000D000B0008E20C601C701C801D720003A031D19
:1000E00075280130C6001930C800F9309200073079
:1000F00093008C1008000908C1000830C1050E0DDE
:100100000E0D0139C000C201410803198C284008B6
:10011000031D8C280130C20042080800DD20E220C7
:100120000130B8203F30C3005530C200C20B9628C2
:10013000C30B9628DD200800DD20E5200230B82022
:100140003F30C3005530C200C20BA428C30BA42803
:10015000DD200800C1000130C000410AB1280310B1
:10016000C00DFF3E031DAF284008FF3A8705080079
:10017000C1000130C000410ABF280310C00DFF3E7E
:10018000031DBD284008870408000730CE20003A30
:10019000031DCC280130080000300800C00006080C
:1001A0004005031DD5280130080000300800851DDA
:1001B000DB2801300800003008000130AA2002309E
:1001C000AA200800FE3087050800071408008B13DA
:0201D000E8281D
:02400E009E38DA
:00000001FF
